{
  "contracts/NewRewardsETH.sol": {
    "NewRewardsETH": {
      "abi": [
        {
          "inputs": [
            {
              "internalType": "contract IERC20",
              "name": "_rewardToken",
              "type": "address"
            },
            {
              "internalType": "contract IERC20",
              "name": "_stakedToken",
              "type": "address"
            }
          ],
          "stateMutability": "nonpayable",
          "type": "constructor"
        },
        {
          "anonymous": false,
          "inputs": [
            {
              "indexed": true,
              "internalType": "address",
              "name": "previousOwner",
              "type": "address"
            },
            {
              "indexed": true,
              "internalType": "address",
              "name": "newOwner",
              "type": "address"
            }
          ],
          "name": "OwnershipTransferred",
          "type": "event"
        },
        {
          "anonymous": false,
          "inputs": [
            {
              "indexed": false,
              "internalType": "uint256",
              "name": "reward",
              "type": "uint256"
            }
          ],
          "name": "RewardAdded",
          "type": "event"
        },
        {
          "anonymous": false,
          "inputs": [
            {
              "indexed": true,
              "internalType": "address",
              "name": "user",
              "type": "address"
            },
            {
              "indexed": false,
              "internalType": "uint256",
              "name": "reward",
              "type": "uint256"
            }
          ],
          "name": "RewardPaid",
          "type": "event"
        },
        {
          "anonymous": false,
          "inputs": [
            {
              "indexed": true,
              "internalType": "address",
              "name": "user",
              "type": "address"
            },
            {
              "indexed": false,
              "internalType": "uint256",
              "name": "amount",
              "type": "uint256"
            }
          ],
          "name": "Staked",
          "type": "event"
        },
        {
          "anonymous": false,
          "inputs": [
            {
              "indexed": true,
              "internalType": "address",
              "name": "user",
              "type": "address"
            },
            {
              "indexed": false,
              "internalType": "uint256",
              "name": "amount",
              "type": "uint256"
            }
          ],
          "name": "Withdrawn",
          "type": "event"
        },
        {
          "inputs": [
            {
              "internalType": "address",
              "name": "account",
              "type": "address"
            }
          ],
          "name": "balanceOf",
          "outputs": [
            {
              "internalType": "uint256",
              "name": "",
              "type": "uint256"
            }
          ],
          "stateMutability": "view",
          "type": "function"
        },
        {
          "inputs": [],
          "name": "beneficiary",
          "outputs": [
            {
              "internalType": "address",
              "name": "",
              "type": "address"
            }
          ],
          "stateMutability": "view",
          "type": "function"
        },
        {
          "inputs": [],
          "name": "buyback",
          "outputs": [
            {
              "internalType": "uint128",
              "name": "",
              "type": "uint128"
            }
          ],
          "stateMutability": "view",
          "type": "function"
        },
        {
          "inputs": [
            {
              "internalType": "address",
              "name": "account",
              "type": "address"
            }
          ],
          "name": "earned",
          "outputs": [
            {
              "internalType": "uint128",
              "name": "",
              "type": "uint128"
            }
          ],
          "stateMutability": "view",
          "type": "function"
        },
        {
          "inputs": [],
          "name": "exit",
          "outputs": [],
          "stateMutability": "nonpayable",
          "type": "function"
        },
        {
          "inputs": [],
          "name": "getReward",
          "outputs": [],
          "stateMutability": "nonpayable",
          "type": "function"
        },
        {
          "inputs": [],
          "name": "lastTimeRewardApplicable",
          "outputs": [
            {
              "internalType": "uint64",
              "name": "",
              "type": "uint64"
            }
          ],
          "stateMutability": "view",
          "type": "function"
        },
        {
          "inputs": [],
          "name": "lastUpdateTime",
          "outputs": [
            {
              "internalType": "uint64",
              "name": "",
              "type": "uint64"
            }
          ],
          "stateMutability": "view",
          "type": "function"
        },
        {
          "inputs": [],
          "name": "maxStakingAmount",
          "outputs": [
            {
              "internalType": "uint256",
              "name": "",
              "type": "uint256"
            }
          ],
          "stateMutability": "view",
          "type": "function"
        },
        {
          "inputs": [],
          "name": "owner",
          "outputs": [
            {
              "internalType": "address",
              "name": "",
              "type": "address"
            }
          ],
          "stateMutability": "view",
          "type": "function"
        },
        {
          "inputs": [],
          "name": "periodFinish",
          "outputs": [
            {
              "internalType": "uint64",
              "name": "",
              "type": "uint64"
            }
          ],
          "stateMutability": "view",
          "type": "function"
        },
        {
          "inputs": [],
          "name": "renounceOwnership",
          "outputs": [],
          "stateMutability": "nonpayable",
          "type": "function"
        },
        {
          "inputs": [],
          "name": "rewardPerToken",
          "outputs": [
            {
              "internalType": "uint128",
              "name": "",
              "type": "uint128"
            }
          ],
          "stateMutability": "view",
          "type": "function"
        },
        {
          "inputs": [],
          "name": "rewardPerTokenStored",
          "outputs": [
            {
              "internalType": "uint128",
              "name": "",
              "type": "uint128"
            }
          ],
          "stateMutability": "view",
          "type": "function"
        },
        {
          "inputs": [],
          "name": "rewardRate",
          "outputs": [
            {
              "internalType": "uint256",
              "name": "",
              "type": "uint256"
            }
          ],
          "stateMutability": "view",
          "type": "function"
        },
        {
          "inputs": [],
          "name": "rewardToken",
          "outputs": [
            {
              "internalType": "contract IERC20",
              "name": "",
              "type": "address"
            }
          ],
          "stateMutability": "view",
          "type": "function"
        },
        {
          "inputs": [
            {
              "internalType": "address",
              "name": "addr",
              "type": "address"
            }
          ],
          "name": "setBuyBackAddr",
          "outputs": [],
          "stateMutability": "nonpayable",
          "type": "function"
        },
        {
          "inputs": [
            {
              "internalType": "uint128",
              "name": "value",
              "type": "uint128"
            }
          ],
          "name": "setBuyback",
          "outputs": [],
          "stateMutability": "nonpayable",
          "type": "function"
        },
        {
          "inputs": [
            {
              "internalType": "uint256",
              "name": "value",
              "type": "uint256"
            }
          ],
          "name": "setMaxStakingAmount",
          "outputs": [],
          "stateMutability": "nonpayable",
          "type": "function"
        },
        {
          "inputs": [
            {
              "internalType": "uint128",
              "name": "reward",
              "type": "uint128"
            },
            {
              "internalType": "uint64",
              "name": "duration",
              "type": "uint64"
            }
          ],
          "name": "setRewardParams",
          "outputs": [],
          "stateMutability": "nonpayable",
          "type": "function"
        },
        {
          "inputs": [
            {
              "internalType": "uint128",
              "name": "amount",
              "type": "uint128"
            }
          ],
          "name": "stake",
          "outputs": [],
          "stateMutability": "payable",
          "type": "function"
        },
        {
          "inputs": [
            {
              "internalType": "address",
              "name": "forWhom",
              "type": "address"
            },
            {
              "internalType": "uint128",
              "name": "amount",
              "type": "uint128"
            }
          ],
          "name": "stakeFor",
          "outputs": [],
          "stateMutability": "payable",
          "type": "function"
        },
        {
          "inputs": [],
          "name": "stakedToken",
          "outputs": [
            {
              "internalType": "contract IERC20",
              "name": "",
              "type": "address"
            }
          ],
          "stateMutability": "view",
          "type": "function"
        },
        {
          "inputs": [],
          "name": "totalSupply",
          "outputs": [
            {
              "internalType": "uint256",
              "name": "",
              "type": "uint256"
            }
          ],
          "stateMutability": "view",
          "type": "function"
        },
        {
          "inputs": [
            {
              "internalType": "address",
              "name": "newOwner",
              "type": "address"
            }
          ],
          "name": "transferOwnership",
          "outputs": [],
          "stateMutability": "nonpayable",
          "type": "function"
        },
        {
          "inputs": [
            {
              "internalType": "address",
              "name": "",
              "type": "address"
            }
          ],
          "name": "userRewards",
          "outputs": [
            {
              "internalType": "uint128",
              "name": "userRewardPerTokenPaid",
              "type": "uint128"
            },
            {
              "internalType": "uint128",
              "name": "rewards",
              "type": "uint128"
            }
          ],
          "stateMutability": "view",
          "type": "function"
        },
        {
          "inputs": [
            {
              "internalType": "uint128",
              "name": "amount",
              "type": "uint128"
            }
          ],
          "name": "withdraw",
          "outputs": [],
          "stateMutability": "nonpayable",
          "type": "function"
        },
        {
          "inputs": [],
          "name": "withdrawReward",
          "outputs": [],
          "stateMutability": "nonpayable",
          "type": "function"
        }
      ],
      "evm": {
        "bytecode": {
          "linkReferences": {},
          "object": "6080604052600280546001600160801b03191681179055600580546001600160a01b03191673dbfd6dabd2eaf53e5dbdc5e96ffb7e5e6b201f691790556702c68af0bb140000600b553480156200005557600080fd5b5060405162001aa938038062001aa98339810160408190526200007891620000d7565b6001600055600680546001600160a01b03199081163317909155600780546001600160a01b03948516908316179055600480549290931691161790556200010f565b80516001600160a01b0381168114620000d257600080fd5b919050565b60008060408385031215620000eb57600080fd5b620000f683620000ba565b91506200010660208401620000ba565b90509250929050565b61198a806200011f6000396000f3fe6080604052600436106101b65760003560e01c806388fe2be8116100ec578063cfffbd661161008a578063ebe2b12b11610064578063ebe2b12b14610503578063f2fde38b14610523578063f7c618c114610543578063f8ec69111461056357600080fd5b8063cfffbd66146104a7578063df136d65146104c7578063e9fad8ee146104ee57600080fd5b8063c885bc58116100c6578063c885bc5814610436578063c8f33c911461044b578063cc7a262e14610472578063cd3daf9d1461049257600080fd5b806388fe2be8146103e357806389ee4bde146103f65780638da5cb5b1461041657600080fd5b80634d5d080611610159578063715018a611610133578063715018a61461036b5780637b0a47ee14610380578063807710e01461039657806380faa57d146103b657600080fd5b80634d5d08061461030c57806370458d851461032257806370a082311461033557600080fd5b806318160ddd1161019557806318160ddd1461027b57806322b105541461029f57806338af3eed146102bf5780633d18b912146102f757600080fd5b80628cc262146101bb57806302387a7b146101f85780630660f1e81461021a575b600080fd5b3480156101c757600080fd5b506101db6101d63660046116f5565b610583565b6040516001600160801b0390911681526020015b60405180910390f35b34801561020457600080fd5b5061021861021336600461176c565b610600565b005b34801561022657600080fd5b5061025b6102353660046116f5565b600a602052600090815260409020546001600160801b0380821691600160801b90041682565b604080516001600160801b039384168152929091166020830152016101ef565b34801561028757600080fd5b5061029160015481565b6040519081526020016101ef565b3480156102ab57600080fd5b506102186102ba3660046117ca565b6106b1565b3480156102cb57600080fd5b506005546102df906001600160a01b031681565b6040516001600160a01b0390911681526020016101ef565b34801561030357600080fd5b506102186106f6565b34801561031857600080fd5b50610291600b5481565b610218610330366004611717565b6108d6565b34801561034157600080fd5b506102916103503660046116f5565b6001600160a01b031660009081526003602052604090205490565b34801561037757600080fd5b506102186109e3565b34801561038c57600080fd5b5061029160085481565b3480156103a257600080fd5b506102186103b136600461176c565b610a57565b3480156103c257600080fd5b506103cb610aa3565b6040516001600160401b0390911681526020016101ef565b6102186103f136600461176c565b610ad7565b34801561040257600080fd5b50610218610411366004611787565b610b50565b34801561042257600080fd5b506006546102df906001600160a01b031681565b34801561044257600080fd5b50610218610dac565b34801561045757600080fd5b506009546103cb90600160401b90046001600160401b031681565b34801561047e57600080fd5b506004546102df906001600160a01b031681565b34801561049e57600080fd5b506101db610f43565b3480156104b357600080fd5b506102186104c23660046116f5565b610fcc565b3480156104d357600080fd5b506009546101db90600160801b90046001600160801b031681565b3480156104fa57600080fd5b50610218611018565b34801561050f57600080fd5b506009546103cb906001600160401b031681565b34801561052f57600080fd5b5061021861053e3660046116f5565b61104b565b34801561054f57600080fd5b506007546102df906001600160a01b031681565b34801561056f57600080fd5b506002546101db906001600160801b031681565b6001600160a01b0381166000908152600a60205260408120546001600160801b03600160801b8204811691670de0b6b3a764000091166105c1610f43565b036001600160801b03166105ea856001600160a01b031660009081526003602052604090205490565b02816105f8576105f861193e565b040192915050565b33600061060b610f43565b9050610615610aa3565b600980546001600160801b03808516600160801b026001600160401b03948516600160401b0291909116939091169290921791909117905561065682610583565b6001600160a01b0383166000908152600a602052604090206001600160801b038381169216600160801b026001600160801b03191691909117905561069961107e565b6106a2836110d8565b6106ac6001600055565b505050565b6006546001600160a01b031633146106e45760405162461bcd60e51b81526004016106db90611851565b60405180910390fd5b600081116106f157600080fd5b600b55565b336000610701610f43565b905061070b610aa3565b600980546001600160801b03808516600160801b026001600160401b03948516600160401b0291909116939091169290921791909117905561074c82610583565b6001600160a01b0383166000908152600a602052604090206001600160801b038381169216600160801b026001600160801b03191691909117905561078f61107e565b600061079a33610583565b6001600160801b0316905080156108c757336000818152600a60205260409081902080546001600160801b03169055600754905163a9059cbb60e01b81526004810192909252602482018390526001600160a01b03169063a9059cbb90604401602060405180830381600087803b15801561081457600080fd5b505af1158015610828573d6000803e3d6000fd5b505050506040513d601f19601f8201168201806040525081019061084c919061174a565b6108915760405162461bcd60e51b81526020600482015260166024820152751c995dd85c99081d1c985b9cd9995c8819985a5b195960521b60448201526064016106db565b60405181815233907fe2403640ba68fed3a2f88b7557551d1993f84b99bb10ff833f0cf8db0c5e04869060200160405180910390a25b506108d26001600055565b5050565b8160006108e1610f43565b90506108eb610aa3565b600980546001600160801b03808516600160801b026001600160401b03948516600160401b0291909116939091169290921791909117905561092c82610583565b6001600160a01b0383166000908152600a602052604090206001600160801b038381169216600160801b026001600160801b03191691909117905561096f61107e565b600b54836001600160801b0316106109c95760405162461bcd60e51b815260206004820181905260248201527f616d6f756e7420657863656564206d6178207374616b696e6720616d6f756e7460448201526064016106db565b6109d384846113b6565b6109dd6001600055565b50505050565b6006546001600160a01b03163314610a0d5760405162461bcd60e51b81526004016106db90611851565b6006546040516000916001600160a01b0316907f8be0079c531659141344cd1fd0a4f28419497f9722a3daafe3b4186f6b6457e0908390a3600680546001600160a01b0319169055565b6006546001600160a01b03163314610a815760405162461bcd60e51b81526004016106db90611851565b600280546001600160801b0319166001600160801b0392909216919091179055565b60095460009042906001600160401b0390811690821610610acf576009546001600160401b0316610ad1565b805b91505090565b610adf61107e565b600b54816001600160801b031610610b395760405162461bcd60e51b815260206004820181905260248201527f616d6f756e7420657863656564206d6178207374616b696e6720616d6f756e7460448201526064016106db565b610b4333826108d6565b610b4d6001600055565b50565b6006546001600160a01b03163314610b7a5760405162461bcd60e51b81526004016106db90611851565b6000826001600160801b031611610b9057600080fd5b610b98610f43565b600980546001600160801b03928316600160801b0292169190911790556007546040516370a0823160e01b815230600482015242916000916001600160a01b03909116906370a082319060240160206040518083038186803b158015610bfd57600080fd5b505afa158015610c11573d6000803e3d6000fd5b505050506040513d601f19601f82011682018060405250810190610c3591906117e3565b6004546007549192506001600160a01b0391821691161415610c575760015490035b6009546000906001600160401b0390811690841610610ca357836001600160401b0316856001600160801b031681610c9157610c9161193e565b046001600160801b0316600855610cdf565b506009546008546001600160401b0391821684900382169081029185166001600160801b038716830181610cd957610cd961193e565b04600855505b8181866001600160801b0316011115610d2e5760405162461bcd60e51b81526020600482015260116024820152706e6f7420656e6f75676820746f6b656e7360781b60448201526064016106db565b600980546001600160801b031916600160401b6001600160401b038087169190910267ffffffffffffffff191691909117858701919091161790556040516001600160801b03861681527fde88a922e0d3b88b24e9623efeb464919c6bf9f66857a65e2bfcf2ce87a9433d9060200160405180910390a15050505050565b6006546001600160a01b03163314610dd65760405162461bcd60e51b81526004016106db90611851565b610dde61107e565b6007546040516370a0823160e01b81523060048201526000916001600160a01b0316906370a082319060240160206040518083038186803b158015610e2257600080fd5b505afa158015610e36573d6000803e3d6000fd5b505050506040513d601f19601f82011682018060405250810190610e5a91906117e3565b6004546007549192506001600160a01b0391821691161415610e8657600154610e839082611911565b90505b60075460405163a9059cbb60e01b8152336004820152602481018390526001600160a01b039091169063a9059cbb90604401602060405180830381600087803b158015610ed257600080fd5b505af1158015610ee6573d6000803e3d6000fd5b505050506040513d601f19601f82011682018060405250810190610f0a919061174a565b610f1357600080fd5b506000600855600980546001600160401b03421667ffffffffffffffff19909116179055610f416001600055565b565b60015460009080610f66575050600954600160801b90046001600160801b031690565b600954600090600160401b90046001600160401b0316610f84610aa3565b036001600160401b03169050816008548202670de0b6b3a76400000281610fad57610fad61193e565b6009546001600160801b03600160801b90910416919004019392505050565b6006546001600160a01b03163314610ff65760405162461bcd60e51b81526004016106db90611851565b600580546001600160a01b0319166001600160a01b0392909216919091179055565b61102061107e565b6110286106f6565b3360009081526003602052604090205461104190610600565b610f416001600055565b6006546001600160a01b031633146110755760405162461bcd60e51b81526004016106db90611851565b610b4d81611601565b600260005414156110d15760405162461bcd60e51b815260206004820152601f60248201527f5265656e7472616e637947756172643a207265656e7472616e742063616c6c0060448201526064016106db565b6002600055565b336000908152600360205260409020546001600160801b03821611156111405760405162461bcd60e51b815260206004820152601a60248201527f77697468647261773a2062616c616e6365206973206c6f77657200000000000060448201526064016106db565b33600090815260036020526040902080546001600160801b03831690819003909155600180549190910390556004546001600160a01b03168061129157600254600090606490611199906001600160801b0316856118ba565b6111a39190611886565b6005546040519192506001600160a01b0316906001600160801b03831680156108fc02916000818181858888f193505050501580156111e6573d6000803e3d6000fd5b506000336111f483866118e9565b6001600160801b031660405160006040518083038185875af1925050503d806000811461123d576040519150601f19603f3d011682016040523d82523d6000602084013e611242565b606091505b505090508061128a5760405162461bcd60e51b8152602060048201526014602482015273657468207472616e73666572206661696c75726560601b60448201526064016106db565b5050611374565b6004805460405163a9059cbb60e01b815233928101929092526001600160801b03841660248301526001600160a01b03169063a9059cbb90604401602060405180830381600087803b1580156112e657600080fd5b505af11580156112fa573d6000803e3d6000fd5b505050506040513d601f19601f8201168201806040525081019061131e919061174a565b6040518060400160405280601c81526020017f7374616b656420746f6b656e207472616e73666572206661696c656400000000815250906113725760405162461bcd60e51b81526004016106db91906117fc565b505b6040516001600160801b038316815233907f7084f5476618d8e60b11ef0d7d3f06914655adb8793e28ff7f018d4c76d505d59060200160405180910390a25050565b6004546001600160a01b0316806113f65760018054349081019091556001600160a01b0384166000908152600360205260409020805490910190556115b5565b341561143b5760405162461bcd60e51b815260206004820152601460248201527316995c9bc8115d1a081b9bdd08185b1b1bddd95960621b60448201526064016106db565b6000826001600160801b03161161149e5760405162461bcd60e51b815260206004820152602160248201527f5374616b652073686f756c642062652067726561746572207468616e207a65726044820152606f60f81b60648201526084016106db565b6040516323b872dd60e01b81523360048201523060248201526001600160801b03831660448201526001600160a01b038216906323b872dd90606401602060405180830381600087803b1580156114f457600080fd5b505af1158015611508573d6000803e3d6000fd5b505050506040513d601f19601f8201168201806040525081019061152c919061174a565b6040518060400160405280601c81526020017f7374616b656420746f6b656e207472616e73666572206661696c656400000000815250906115805760405162461bcd60e51b81526004016106db91906117fc565b50600180546001600160801b0384169081019091556001600160a01b0384166000908152600360205260409020805490910190555b6040516001600160801b03831681526001600160a01b038416907f9e71bc8eea02a63969f509818f2dafb9254532904319f9dbda79b67bd34a5f3d9060200160405180910390a2505050565b6001600160a01b0381166116665760405162461bcd60e51b815260206004820152602660248201527f4f776e61626c653a206e6577206f776e657220697320746865207a65726f206160448201526564647265737360d01b60648201526084016106db565b6006546040516001600160a01b038084169216907f8be0079c531659141344cd1fd0a4f28419497f9722a3daafe3b4186f6b6457e090600090a3600680546001600160a01b0319166001600160a01b0392909216919091179055565b80356001600160a01b03811681146116d957600080fd5b919050565b80356001600160801b03811681146116d957600080fd5b60006020828403121561170757600080fd5b611710826116c2565b9392505050565b6000806040838503121561172a57600080fd5b611733836116c2565b9150611741602084016116de565b90509250929050565b60006020828403121561175c57600080fd5b8151801515811461171057600080fd5b60006020828403121561177e57600080fd5b611710826116de565b6000806040838503121561179a57600080fd5b6117a3836116de565b915060208301356001600160401b03811681146117bf57600080fd5b809150509250929050565b6000602082840312156117dc57600080fd5b5035919050565b6000602082840312156117f557600080fd5b5051919050565b600060208083528351808285015260005b818110156118295785810183015185820160400152820161180d565b8181111561183b576000604083870101525b50601f01601f1916929092016040019392505050565b6020808252818101527f4f776e61626c653a2063616c6c6572206973206e6f7420746865206f776e6572604082015260600190565b60006001600160801b03808416806118ae57634e487b7160e01b600052601260045260246000fd5b92169190910492915050565b60006001600160801b03808316818516818304811182151516156118e0576118e0611928565b02949350505050565b60006001600160801b038381169083168181101561190957611909611928565b039392505050565b60008282101561192357611923611928565b500390565b634e487b7160e01b600052601160045260246000fd5b634e487b7160e01b600052601260045260246000fdfea26469706673582212205ba16d3d119637fecf860c9cb0dcf150da2560d01b3d65e915a24ae343bfc4df64736f6c63430008070033",
          "opcodes": "PUSH1 0x80 PUSH1 0x40 MSTORE PUSH1 0x2 DUP1 SLOAD PUSH1 0x1 PUSH1 0x1 PUSH1 0x80 SHL SUB NOT AND DUP2 OR SWAP1 SSTORE PUSH1 0x5 DUP1 SLOAD PUSH1 0x1 PUSH1 0x1 PUSH1 0xA0 SHL SUB NOT AND PUSH20 0xDBFD6DABD2EAF53E5DBDC5E96FFB7E5E6B201F69 OR SWAP1 SSTORE PUSH8 0x2C68AF0BB140000 PUSH1 0xB SSTORE CALLVALUE DUP1 ISZERO PUSH3 0x55 JUMPI PUSH1 0x0 DUP1 REVERT JUMPDEST POP PUSH1 0x40 MLOAD PUSH3 0x1AA9 CODESIZE SUB DUP1 PUSH3 0x1AA9 DUP4 CODECOPY DUP2 ADD PUSH1 0x40 DUP2 SWAP1 MSTORE PUSH3 0x78 SWAP2 PUSH3 0xD7 JUMP JUMPDEST PUSH1 0x1 PUSH1 0x0 SSTORE PUSH1 0x6 DUP1 SLOAD PUSH1 0x1 PUSH1 0x1 PUSH1 0xA0 SHL SUB NOT SWAP1 DUP2 AND CALLER OR SWAP1 SWAP2 SSTORE PUSH1 0x7 DUP1 SLOAD PUSH1 0x1 PUSH1 0x1 PUSH1 0xA0 SHL SUB SWAP5 DUP6 AND SWAP1 DUP4 AND OR SWAP1 SSTORE PUSH1 0x4 DUP1 SLOAD SWAP3 SWAP1 SWAP4 AND SWAP2 AND OR SWAP1 SSTORE PUSH3 0x10F JUMP JUMPDEST DUP1 MLOAD PUSH1 0x1 PUSH1 0x1 PUSH1 0xA0 SHL SUB DUP2 AND DUP2 EQ PUSH3 0xD2 JUMPI PUSH1 0x0 DUP1 REVERT JUMPDEST SWAP2 SWAP1 POP JUMP JUMPDEST PUSH1 0x0 DUP1 PUSH1 0x40 DUP4 DUP6 SUB SLT ISZERO PUSH3 0xEB JUMPI PUSH1 0x0 DUP1 REVERT JUMPDEST PUSH3 0xF6 DUP4 PUSH3 0xBA JUMP JUMPDEST SWAP2 POP PUSH3 0x106 PUSH1 0x20 DUP5 ADD PUSH3 0xBA JUMP JUMPDEST SWAP1 POP SWAP3 POP SWAP3 SWAP1 POP JUMP JUMPDEST PUSH2 0x198A DUP1 PUSH3 0x11F PUSH1 0x0 CODECOPY PUSH1 0x0 RETURN INVALID PUSH1 0x80 PUSH1 0x40 MSTORE PUSH1 0x4 CALLDATASIZE LT PUSH2 0x1B6 JUMPI PUSH1 0x0 CALLDATALOAD PUSH1 0xE0 SHR DUP1 PUSH4 0x88FE2BE8 GT PUSH2 0xEC JUMPI DUP1 PUSH4 0xCFFFBD66 GT PUSH2 0x8A JUMPI DUP1 PUSH4 0xEBE2B12B GT PUSH2 0x64 JUMPI DUP1 PUSH4 0xEBE2B12B EQ PUSH2 0x503 JUMPI DUP1 PUSH4 0xF2FDE38B EQ PUSH2 0x523 JUMPI DUP1 PUSH4 0xF7C618C1 EQ PUSH2 0x543 JUMPI DUP1 PUSH4 0xF8EC6911 EQ PUSH2 0x563 JUMPI PUSH1 0x0 DUP1 REVERT JUMPDEST DUP1 PUSH4 0xCFFFBD66 EQ PUSH2 0x4A7 JUMPI DUP1 PUSH4 0xDF136D65 EQ PUSH2 0x4C7 JUMPI DUP1 PUSH4 0xE9FAD8EE EQ PUSH2 0x4EE JUMPI PUSH1 0x0 DUP1 REVERT JUMPDEST DUP1 PUSH4 0xC885BC58 GT PUSH2 0xC6 JUMPI DUP1 PUSH4 0xC885BC58 EQ PUSH2 0x436 JUMPI DUP1 PUSH4 0xC8F33C91 EQ PUSH2 0x44B JUMPI DUP1 PUSH4 0xCC7A262E EQ PUSH2 0x472 JUMPI DUP1 PUSH4 0xCD3DAF9D EQ PUSH2 0x492 JUMPI PUSH1 0x0 DUP1 REVERT JUMPDEST DUP1 PUSH4 0x88FE2BE8 EQ PUSH2 0x3E3 JUMPI DUP1 PUSH4 0x89EE4BDE EQ PUSH2 0x3F6 JUMPI DUP1 PUSH4 0x8DA5CB5B EQ PUSH2 0x416 JUMPI PUSH1 0x0 DUP1 REVERT JUMPDEST DUP1 PUSH4 0x4D5D0806 GT PUSH2 0x159 JUMPI DUP1 PUSH4 0x715018A6 GT PUSH2 0x133 JUMPI DUP1 PUSH4 0x715018A6 EQ PUSH2 0x36B JUMPI DUP1 PUSH4 0x7B0A47EE EQ PUSH2 0x380 JUMPI DUP1 PUSH4 0x807710E0 EQ PUSH2 0x396 JUMPI DUP1 PUSH4 0x80FAA57D EQ PUSH2 0x3B6 JUMPI PUSH1 0x0 DUP1 REVERT JUMPDEST DUP1 PUSH4 0x4D5D0806 EQ PUSH2 0x30C JUMPI DUP1 PUSH4 0x70458D85 EQ PUSH2 0x322 JUMPI DUP1 PUSH4 0x70A08231 EQ PUSH2 0x335 JUMPI PUSH1 0x0 DUP1 REVERT JUMPDEST DUP1 PUSH4 0x18160DDD GT PUSH2 0x195 JUMPI DUP1 PUSH4 0x18160DDD EQ PUSH2 0x27B JUMPI DUP1 PUSH4 0x22B10554 EQ PUSH2 0x29F JUMPI DUP1 PUSH4 0x38AF3EED EQ PUSH2 0x2BF JUMPI DUP1 PUSH4 0x3D18B912 EQ PUSH2 0x2F7 JUMPI PUSH1 0x0 DUP1 REVERT JUMPDEST DUP1 PUSH3 0x8CC262 EQ PUSH2 0x1BB JUMPI DUP1 PUSH4 0x2387A7B EQ PUSH2 0x1F8 JUMPI DUP1 PUSH4 0x660F1E8 EQ PUSH2 0x21A JUMPI JUMPDEST PUSH1 0x0 DUP1 REVERT JUMPDEST CALLVALUE DUP1 ISZERO PUSH2 0x1C7 JUMPI PUSH1 0x0 DUP1 REVERT JUMPDEST POP PUSH2 0x1DB PUSH2 0x1D6 CALLDATASIZE PUSH1 0x4 PUSH2 0x16F5 JUMP JUMPDEST PUSH2 0x583 JUMP JUMPDEST PUSH1 0x40 MLOAD PUSH1 0x1 PUSH1 0x1 PUSH1 0x80 SHL SUB SWAP1 SWAP2 AND DUP2 MSTORE PUSH1 0x20 ADD JUMPDEST PUSH1 0x40 MLOAD DUP1 SWAP2 SUB SWAP1 RETURN JUMPDEST CALLVALUE DUP1 ISZERO PUSH2 0x204 JUMPI PUSH1 0x0 DUP1 REVERT JUMPDEST POP PUSH2 0x218 PUSH2 0x213 CALLDATASIZE PUSH1 0x4 PUSH2 0x176C JUMP JUMPDEST PUSH2 0x600 JUMP JUMPDEST STOP JUMPDEST CALLVALUE DUP1 ISZERO PUSH2 0x226 JUMPI PUSH1 0x0 DUP1 REVERT JUMPDEST POP PUSH2 0x25B PUSH2 0x235 CALLDATASIZE PUSH1 0x4 PUSH2 0x16F5 JUMP JUMPDEST PUSH1 0xA PUSH1 0x20 MSTORE PUSH1 0x0 SWAP1 DUP2 MSTORE PUSH1 0x40 SWAP1 KECCAK256 SLOAD PUSH1 0x1 PUSH1 0x1 PUSH1 0x80 SHL SUB DUP1 DUP3 AND SWAP2 PUSH1 0x1 PUSH1 0x80 SHL SWAP1 DIV AND DUP3 JUMP JUMPDEST PUSH1 0x40 DUP1 MLOAD PUSH1 0x1 PUSH1 0x1 PUSH1 0x80 SHL SUB SWAP4 DUP5 AND DUP2 MSTORE SWAP3 SWAP1 SWAP2 AND PUSH1 0x20 DUP4 ADD MSTORE ADD PUSH2 0x1EF JUMP JUMPDEST CALLVALUE DUP1 ISZERO PUSH2 0x287 JUMPI PUSH1 0x0 DUP1 REVERT JUMPDEST POP PUSH2 0x291 PUSH1 0x1 SLOAD DUP2 JUMP JUMPDEST PUSH1 0x40 MLOAD SWAP1 DUP2 MSTORE PUSH1 0x20 ADD PUSH2 0x1EF JUMP JUMPDEST CALLVALUE DUP1 ISZERO PUSH2 0x2AB JUMPI PUSH1 0x0 DUP1 REVERT JUMPDEST POP PUSH2 0x218 PUSH2 0x2BA CALLDATASIZE PUSH1 0x4 PUSH2 0x17CA JUMP JUMPDEST PUSH2 0x6B1 JUMP JUMPDEST CALLVALUE DUP1 ISZERO PUSH2 0x2CB JUMPI PUSH1 0x0 DUP1 REVERT JUMPDEST POP PUSH1 0x5 SLOAD PUSH2 0x2DF SWAP1 PUSH1 0x1 PUSH1 0x1 PUSH1 0xA0 SHL SUB AND DUP2 JUMP JUMPDEST PUSH1 0x40 MLOAD PUSH1 0x1 PUSH1 0x1 PUSH1 0xA0 SHL SUB SWAP1 SWAP2 AND DUP2 MSTORE PUSH1 0x20 ADD PUSH2 0x1EF JUMP JUMPDEST CALLVALUE DUP1 ISZERO PUSH2 0x303 JUMPI PUSH1 0x0 DUP1 REVERT JUMPDEST POP PUSH2 0x218 PUSH2 0x6F6 JUMP JUMPDEST CALLVALUE DUP1 ISZERO PUSH2 0x318 JUMPI PUSH1 0x0 DUP1 REVERT JUMPDEST POP PUSH2 0x291 PUSH1 0xB SLOAD DUP2 JUMP JUMPDEST PUSH2 0x218 PUSH2 0x330 CALLDATASIZE PUSH1 0x4 PUSH2 0x1717 JUMP JUMPDEST PUSH2 0x8D6 JUMP JUMPDEST CALLVALUE DUP1 ISZERO PUSH2 0x341 JUMPI PUSH1 0x0 DUP1 REVERT JUMPDEST POP PUSH2 0x291 PUSH2 0x350 CALLDATASIZE PUSH1 0x4 PUSH2 0x16F5 JUMP JUMPDEST PUSH1 0x1 PUSH1 0x1 PUSH1 0xA0 SHL SUB AND PUSH1 0x0 SWAP1 DUP2 MSTORE PUSH1 0x3 PUSH1 0x20 MSTORE PUSH1 0x40 SWAP1 KECCAK256 SLOAD SWAP1 JUMP JUMPDEST CALLVALUE DUP1 ISZERO PUSH2 0x377 JUMPI PUSH1 0x0 DUP1 REVERT JUMPDEST POP PUSH2 0x218 PUSH2 0x9E3 JUMP JUMPDEST CALLVALUE DUP1 ISZERO PUSH2 0x38C JUMPI PUSH1 0x0 DUP1 REVERT JUMPDEST POP PUSH2 0x291 PUSH1 0x8 SLOAD DUP2 JUMP JUMPDEST CALLVALUE DUP1 ISZERO PUSH2 0x3A2 JUMPI PUSH1 0x0 DUP1 REVERT JUMPDEST POP PUSH2 0x218 PUSH2 0x3B1 CALLDATASIZE PUSH1 0x4 PUSH2 0x176C JUMP JUMPDEST PUSH2 0xA57 JUMP JUMPDEST CALLVALUE DUP1 ISZERO PUSH2 0x3C2 JUMPI PUSH1 0x0 DUP1 REVERT JUMPDEST POP PUSH2 0x3CB PUSH2 0xAA3 JUMP JUMPDEST PUSH1 0x40 MLOAD PUSH1 0x1 PUSH1 0x1 PUSH1 0x40 SHL SUB SWAP1 SWAP2 AND DUP2 MSTORE PUSH1 0x20 ADD PUSH2 0x1EF JUMP JUMPDEST PUSH2 0x218 PUSH2 0x3F1 CALLDATASIZE PUSH1 0x4 PUSH2 0x176C JUMP JUMPDEST PUSH2 0xAD7 JUMP JUMPDEST CALLVALUE DUP1 ISZERO PUSH2 0x402 JUMPI PUSH1 0x0 DUP1 REVERT JUMPDEST POP PUSH2 0x218 PUSH2 0x411 CALLDATASIZE PUSH1 0x4 PUSH2 0x1787 JUMP JUMPDEST PUSH2 0xB50 JUMP JUMPDEST CALLVALUE DUP1 ISZERO PUSH2 0x422 JUMPI PUSH1 0x0 DUP1 REVERT JUMPDEST POP PUSH1 0x6 SLOAD PUSH2 0x2DF SWAP1 PUSH1 0x1 PUSH1 0x1 PUSH1 0xA0 SHL SUB AND DUP2 JUMP JUMPDEST CALLVALUE DUP1 ISZERO PUSH2 0x442 JUMPI PUSH1 0x0 DUP1 REVERT JUMPDEST POP PUSH2 0x218 PUSH2 0xDAC JUMP JUMPDEST CALLVALUE DUP1 ISZERO PUSH2 0x457 JUMPI PUSH1 0x0 DUP1 REVERT JUMPDEST POP PUSH1 0x9 SLOAD PUSH2 0x3CB SWAP1 PUSH1 0x1 PUSH1 0x40 SHL SWAP1 DIV PUSH1 0x1 PUSH1 0x1 PUSH1 0x40 SHL SUB AND DUP2 JUMP JUMPDEST CALLVALUE DUP1 ISZERO PUSH2 0x47E JUMPI PUSH1 0x0 DUP1 REVERT JUMPDEST POP PUSH1 0x4 SLOAD PUSH2 0x2DF SWAP1 PUSH1 0x1 PUSH1 0x1 PUSH1 0xA0 SHL SUB AND DUP2 JUMP JUMPDEST CALLVALUE DUP1 ISZERO PUSH2 0x49E JUMPI PUSH1 0x0 DUP1 REVERT JUMPDEST POP PUSH2 0x1DB PUSH2 0xF43 JUMP JUMPDEST CALLVALUE DUP1 ISZERO PUSH2 0x4B3 JUMPI PUSH1 0x0 DUP1 REVERT JUMPDEST POP PUSH2 0x218 PUSH2 0x4C2 CALLDATASIZE PUSH1 0x4 PUSH2 0x16F5 JUMP JUMPDEST PUSH2 0xFCC JUMP JUMPDEST CALLVALUE DUP1 ISZERO PUSH2 0x4D3 JUMPI PUSH1 0x0 DUP1 REVERT JUMPDEST POP PUSH1 0x9 SLOAD PUSH2 0x1DB SWAP1 PUSH1 0x1 PUSH1 0x80 SHL SWAP1 DIV PUSH1 0x1 PUSH1 0x1 PUSH1 0x80 SHL SUB AND DUP2 JUMP JUMPDEST CALLVALUE DUP1 ISZERO PUSH2 0x4FA JUMPI PUSH1 0x0 DUP1 REVERT JUMPDEST POP PUSH2 0x218 PUSH2 0x1018 JUMP JUMPDEST CALLVALUE DUP1 ISZERO PUSH2 0x50F JUMPI PUSH1 0x0 DUP1 REVERT JUMPDEST POP PUSH1 0x9 SLOAD PUSH2 0x3CB SWAP1 PUSH1 0x1 PUSH1 0x1 PUSH1 0x40 SHL SUB AND DUP2 JUMP JUMPDEST CALLVALUE DUP1 ISZERO PUSH2 0x52F JUMPI PUSH1 0x0 DUP1 REVERT JUMPDEST POP PUSH2 0x218 PUSH2 0x53E CALLDATASIZE PUSH1 0x4 PUSH2 0x16F5 JUMP JUMPDEST PUSH2 0x104B JUMP JUMPDEST CALLVALUE DUP1 ISZERO PUSH2 0x54F JUMPI PUSH1 0x0 DUP1 REVERT JUMPDEST POP PUSH1 0x7 SLOAD PUSH2 0x2DF SWAP1 PUSH1 0x1 PUSH1 0x1 PUSH1 0xA0 SHL SUB AND DUP2 JUMP JUMPDEST CALLVALUE DUP1 ISZERO PUSH2 0x56F JUMPI PUSH1 0x0 DUP1 REVERT JUMPDEST POP PUSH1 0x2 SLOAD PUSH2 0x1DB SWAP1 PUSH1 0x1 PUSH1 0x1 PUSH1 0x80 SHL SUB AND DUP2 JUMP JUMPDEST PUSH1 0x1 PUSH1 0x1 PUSH1 0xA0 SHL SUB DUP2 AND PUSH1 0x0 SWAP1 DUP2 MSTORE PUSH1 0xA PUSH1 0x20 MSTORE PUSH1 0x40 DUP2 KECCAK256 SLOAD PUSH1 0x1 PUSH1 0x1 PUSH1 0x80 SHL SUB PUSH1 0x1 PUSH1 0x80 SHL DUP3 DIV DUP2 AND SWAP2 PUSH8 0xDE0B6B3A7640000 SWAP2 AND PUSH2 0x5C1 PUSH2 0xF43 JUMP JUMPDEST SUB PUSH1 0x1 PUSH1 0x1 PUSH1 0x80 SHL SUB AND PUSH2 0x5EA DUP6 PUSH1 0x1 PUSH1 0x1 PUSH1 0xA0 SHL SUB AND PUSH1 0x0 SWAP1 DUP2 MSTORE PUSH1 0x3 PUSH1 0x20 MSTORE PUSH1 0x40 SWAP1 KECCAK256 SLOAD SWAP1 JUMP JUMPDEST MUL DUP2 PUSH2 0x5F8 JUMPI PUSH2 0x5F8 PUSH2 0x193E JUMP JUMPDEST DIV ADD SWAP3 SWAP2 POP POP JUMP JUMPDEST CALLER PUSH1 0x0 PUSH2 0x60B PUSH2 0xF43 JUMP JUMPDEST SWAP1 POP PUSH2 0x615 PUSH2 0xAA3 JUMP JUMPDEST PUSH1 0x9 DUP1 SLOAD PUSH1 0x1 PUSH1 0x1 PUSH1 0x80 SHL SUB DUP1 DUP6 AND PUSH1 0x1 PUSH1 0x80 SHL MUL PUSH1 0x1 PUSH1 0x1 PUSH1 0x40 SHL SUB SWAP5 DUP6 AND PUSH1 0x1 PUSH1 0x40 SHL MUL SWAP2 SWAP1 SWAP2 AND SWAP4 SWAP1 SWAP2 AND SWAP3 SWAP1 SWAP3 OR SWAP2 SWAP1 SWAP2 OR SWAP1 SSTORE PUSH2 0x656 DUP3 PUSH2 0x583 JUMP JUMPDEST PUSH1 0x1 PUSH1 0x1 PUSH1 0xA0 SHL SUB DUP4 AND PUSH1 0x0 SWAP1 DUP2 MSTORE PUSH1 0xA PUSH1 0x20 MSTORE PUSH1 0x40 SWAP1 KECCAK256 PUSH1 0x1 PUSH1 0x1 PUSH1 0x80 SHL SUB DUP4 DUP2 AND SWAP3 AND PUSH1 0x1 PUSH1 0x80 SHL MUL PUSH1 0x1 PUSH1 0x1 PUSH1 0x80 SHL SUB NOT AND SWAP2 SWAP1 SWAP2 OR SWAP1 SSTORE PUSH2 0x699 PUSH2 0x107E JUMP JUMPDEST PUSH2 0x6A2 DUP4 PUSH2 0x10D8 JUMP JUMPDEST PUSH2 0x6AC PUSH1 0x1 PUSH1 0x0 SSTORE JUMP JUMPDEST POP POP POP JUMP JUMPDEST PUSH1 0x6 SLOAD PUSH1 0x1 PUSH1 0x1 PUSH1 0xA0 SHL SUB AND CALLER EQ PUSH2 0x6E4 JUMPI PUSH1 0x40 MLOAD PUSH3 0x461BCD PUSH1 0xE5 SHL DUP2 MSTORE PUSH1 0x4 ADD PUSH2 0x6DB SWAP1 PUSH2 0x1851 JUMP JUMPDEST PUSH1 0x40 MLOAD DUP1 SWAP2 SUB SWAP1 REVERT JUMPDEST PUSH1 0x0 DUP2 GT PUSH2 0x6F1 JUMPI PUSH1 0x0 DUP1 REVERT JUMPDEST PUSH1 0xB SSTORE JUMP JUMPDEST CALLER PUSH1 0x0 PUSH2 0x701 PUSH2 0xF43 JUMP JUMPDEST SWAP1 POP PUSH2 0x70B PUSH2 0xAA3 JUMP JUMPDEST PUSH1 0x9 DUP1 SLOAD PUSH1 0x1 PUSH1 0x1 PUSH1 0x80 SHL SUB DUP1 DUP6 AND PUSH1 0x1 PUSH1 0x80 SHL MUL PUSH1 0x1 PUSH1 0x1 PUSH1 0x40 SHL SUB SWAP5 DUP6 AND PUSH1 0x1 PUSH1 0x40 SHL MUL SWAP2 SWAP1 SWAP2 AND SWAP4 SWAP1 SWAP2 AND SWAP3 SWAP1 SWAP3 OR SWAP2 SWAP1 SWAP2 OR SWAP1 SSTORE PUSH2 0x74C DUP3 PUSH2 0x583 JUMP JUMPDEST PUSH1 0x1 PUSH1 0x1 PUSH1 0xA0 SHL SUB DUP4 AND PUSH1 0x0 SWAP1 DUP2 MSTORE PUSH1 0xA PUSH1 0x20 MSTORE PUSH1 0x40 SWAP1 KECCAK256 PUSH1 0x1 PUSH1 0x1 PUSH1 0x80 SHL SUB DUP4 DUP2 AND SWAP3 AND PUSH1 0x1 PUSH1 0x80 SHL MUL PUSH1 0x1 PUSH1 0x1 PUSH1 0x80 SHL SUB NOT AND SWAP2 SWAP1 SWAP2 OR SWAP1 SSTORE PUSH2 0x78F PUSH2 0x107E JUMP JUMPDEST PUSH1 0x0 PUSH2 0x79A CALLER PUSH2 0x583 JUMP JUMPDEST PUSH1 0x1 PUSH1 0x1 PUSH1 0x80 SHL SUB AND SWAP1 POP DUP1 ISZERO PUSH2 0x8C7 JUMPI CALLER PUSH1 0x0 DUP2 DUP2 MSTORE PUSH1 0xA PUSH1 0x20 MSTORE PUSH1 0x40 SWAP1 DUP2 SWAP1 KECCAK256 DUP1 SLOAD PUSH1 0x1 PUSH1 0x1 PUSH1 0x80 SHL SUB AND SWAP1 SSTORE PUSH1 0x7 SLOAD SWAP1 MLOAD PUSH4 0xA9059CBB PUSH1 0xE0 SHL DUP2 MSTORE PUSH1 0x4 DUP2 ADD SWAP3 SWAP1 SWAP3 MSTORE PUSH1 0x24 DUP3 ADD DUP4 SWAP1 MSTORE PUSH1 0x1 PUSH1 0x1 PUSH1 0xA0 SHL SUB AND SWAP1 PUSH4 0xA9059CBB SWAP1 PUSH1 0x44 ADD PUSH1 0x20 PUSH1 0x40 MLOAD DUP1 DUP4 SUB DUP2 PUSH1 0x0 DUP8 DUP1 EXTCODESIZE ISZERO DUP1 ISZERO PUSH2 0x814 JUMPI PUSH1 0x0 DUP1 REVERT JUMPDEST POP GAS CALL ISZERO DUP1 ISZERO PUSH2 0x828 JUMPI RETURNDATASIZE PUSH1 0x0 DUP1 RETURNDATACOPY RETURNDATASIZE PUSH1 0x0 REVERT JUMPDEST POP POP POP POP PUSH1 0x40 MLOAD RETURNDATASIZE PUSH1 0x1F NOT PUSH1 0x1F DUP3 ADD AND DUP3 ADD DUP1 PUSH1 0x40 MSTORE POP DUP2 ADD SWAP1 PUSH2 0x84C SWAP2 SWAP1 PUSH2 0x174A JUMP JUMPDEST PUSH2 0x891 JUMPI PUSH1 0x40 MLOAD PUSH3 0x461BCD PUSH1 0xE5 SHL DUP2 MSTORE PUSH1 0x20 PUSH1 0x4 DUP3 ADD MSTORE PUSH1 0x16 PUSH1 0x24 DUP3 ADD MSTORE PUSH22 0x1C995DD85C99081D1C985B9CD9995C8819985A5B1959 PUSH1 0x52 SHL PUSH1 0x44 DUP3 ADD MSTORE PUSH1 0x64 ADD PUSH2 0x6DB JUMP JUMPDEST PUSH1 0x40 MLOAD DUP2 DUP2 MSTORE CALLER SWAP1 PUSH32 0xE2403640BA68FED3A2F88B7557551D1993F84B99BB10FF833F0CF8DB0C5E0486 SWAP1 PUSH1 0x20 ADD PUSH1 0x40 MLOAD DUP1 SWAP2 SUB SWAP1 LOG2 JUMPDEST POP PUSH2 0x8D2 PUSH1 0x1 PUSH1 0x0 SSTORE JUMP JUMPDEST POP POP JUMP JUMPDEST DUP2 PUSH1 0x0 PUSH2 0x8E1 PUSH2 0xF43 JUMP JUMPDEST SWAP1 POP PUSH2 0x8EB PUSH2 0xAA3 JUMP JUMPDEST PUSH1 0x9 DUP1 SLOAD PUSH1 0x1 PUSH1 0x1 PUSH1 0x80 SHL SUB DUP1 DUP6 AND PUSH1 0x1 PUSH1 0x80 SHL MUL PUSH1 0x1 PUSH1 0x1 PUSH1 0x40 SHL SUB SWAP5 DUP6 AND PUSH1 0x1 PUSH1 0x40 SHL MUL SWAP2 SWAP1 SWAP2 AND SWAP4 SWAP1 SWAP2 AND SWAP3 SWAP1 SWAP3 OR SWAP2 SWAP1 SWAP2 OR SWAP1 SSTORE PUSH2 0x92C DUP3 PUSH2 0x583 JUMP JUMPDEST PUSH1 0x1 PUSH1 0x1 PUSH1 0xA0 SHL SUB DUP4 AND PUSH1 0x0 SWAP1 DUP2 MSTORE PUSH1 0xA PUSH1 0x20 MSTORE PUSH1 0x40 SWAP1 KECCAK256 PUSH1 0x1 PUSH1 0x1 PUSH1 0x80 SHL SUB DUP4 DUP2 AND SWAP3 AND PUSH1 0x1 PUSH1 0x80 SHL MUL PUSH1 0x1 PUSH1 0x1 PUSH1 0x80 SHL SUB NOT AND SWAP2 SWAP1 SWAP2 OR SWAP1 SSTORE PUSH2 0x96F PUSH2 0x107E JUMP JUMPDEST PUSH1 0xB SLOAD DUP4 PUSH1 0x1 PUSH1 0x1 PUSH1 0x80 SHL SUB AND LT PUSH2 0x9C9 JUMPI PUSH1 0x40 MLOAD PUSH3 0x461BCD PUSH1 0xE5 SHL DUP2 MSTORE PUSH1 0x20 PUSH1 0x4 DUP3 ADD DUP2 SWAP1 MSTORE PUSH1 0x24 DUP3 ADD MSTORE PUSH32 0x616D6F756E7420657863656564206D6178207374616B696E6720616D6F756E74 PUSH1 0x44 DUP3 ADD MSTORE PUSH1 0x64 ADD PUSH2 0x6DB JUMP JUMPDEST PUSH2 0x9D3 DUP5 DUP5 PUSH2 0x13B6 JUMP JUMPDEST PUSH2 0x9DD PUSH1 0x1 PUSH1 0x0 SSTORE JUMP JUMPDEST POP POP POP POP JUMP JUMPDEST PUSH1 0x6 SLOAD PUSH1 0x1 PUSH1 0x1 PUSH1 0xA0 SHL SUB AND CALLER EQ PUSH2 0xA0D JUMPI PUSH1 0x40 MLOAD PUSH3 0x461BCD PUSH1 0xE5 SHL DUP2 MSTORE PUSH1 0x4 ADD PUSH2 0x6DB SWAP1 PUSH2 0x1851 JUMP JUMPDEST PUSH1 0x6 SLOAD PUSH1 0x40 MLOAD PUSH1 0x0 SWAP2 PUSH1 0x1 PUSH1 0x1 PUSH1 0xA0 SHL SUB AND SWAP1 PUSH32 0x8BE0079C531659141344CD1FD0A4F28419497F9722A3DAAFE3B4186F6B6457E0 SWAP1 DUP4 SWAP1 LOG3 PUSH1 0x6 DUP1 SLOAD PUSH1 0x1 PUSH1 0x1 PUSH1 0xA0 SHL SUB NOT AND SWAP1 SSTORE JUMP JUMPDEST PUSH1 0x6 SLOAD PUSH1 0x1 PUSH1 0x1 PUSH1 0xA0 SHL SUB AND CALLER EQ PUSH2 0xA81 JUMPI PUSH1 0x40 MLOAD PUSH3 0x461BCD PUSH1 0xE5 SHL DUP2 MSTORE PUSH1 0x4 ADD PUSH2 0x6DB SWAP1 PUSH2 0x1851 JUMP JUMPDEST PUSH1 0x2 DUP1 SLOAD PUSH1 0x1 PUSH1 0x1 PUSH1 0x80 SHL SUB NOT AND PUSH1 0x1 PUSH1 0x1 PUSH1 0x80 SHL SUB SWAP3 SWAP1 SWAP3 AND SWAP2 SWAP1 SWAP2 OR SWAP1 SSTORE JUMP JUMPDEST PUSH1 0x9 SLOAD PUSH1 0x0 SWAP1 TIMESTAMP SWAP1 PUSH1 0x1 PUSH1 0x1 PUSH1 0x40 SHL SUB SWAP1 DUP2 AND SWAP1 DUP3 AND LT PUSH2 0xACF JUMPI PUSH1 0x9 SLOAD PUSH1 0x1 PUSH1 0x1 PUSH1 0x40 SHL SUB AND PUSH2 0xAD1 JUMP JUMPDEST DUP1 JUMPDEST SWAP2 POP POP SWAP1 JUMP JUMPDEST PUSH2 0xADF PUSH2 0x107E JUMP JUMPDEST PUSH1 0xB SLOAD DUP2 PUSH1 0x1 PUSH1 0x1 PUSH1 0x80 SHL SUB AND LT PUSH2 0xB39 JUMPI PUSH1 0x40 MLOAD PUSH3 0x461BCD PUSH1 0xE5 SHL DUP2 MSTORE PUSH1 0x20 PUSH1 0x4 DUP3 ADD DUP2 SWAP1 MSTORE PUSH1 0x24 DUP3 ADD MSTORE PUSH32 0x616D6F756E7420657863656564206D6178207374616B696E6720616D6F756E74 PUSH1 0x44 DUP3 ADD MSTORE PUSH1 0x64 ADD PUSH2 0x6DB JUMP JUMPDEST PUSH2 0xB43 CALLER DUP3 PUSH2 0x8D6 JUMP JUMPDEST PUSH2 0xB4D PUSH1 0x1 PUSH1 0x0 SSTORE JUMP JUMPDEST POP JUMP JUMPDEST PUSH1 0x6 SLOAD PUSH1 0x1 PUSH1 0x1 PUSH1 0xA0 SHL SUB AND CALLER EQ PUSH2 0xB7A JUMPI PUSH1 0x40 MLOAD PUSH3 0x461BCD PUSH1 0xE5 SHL DUP2 MSTORE PUSH1 0x4 ADD PUSH2 0x6DB SWAP1 PUSH2 0x1851 JUMP JUMPDEST PUSH1 0x0 DUP3 PUSH1 0x1 PUSH1 0x1 PUSH1 0x80 SHL SUB AND GT PUSH2 0xB90 JUMPI PUSH1 0x0 DUP1 REVERT JUMPDEST PUSH2 0xB98 PUSH2 0xF43 JUMP JUMPDEST PUSH1 0x9 DUP1 SLOAD PUSH1 0x1 PUSH1 0x1 PUSH1 0x80 SHL SUB SWAP3 DUP4 AND PUSH1 0x1 PUSH1 0x80 SHL MUL SWAP3 AND SWAP2 SWAP1 SWAP2 OR SWAP1 SSTORE PUSH1 0x7 SLOAD PUSH1 0x40 MLOAD PUSH4 0x70A08231 PUSH1 0xE0 SHL DUP2 MSTORE ADDRESS PUSH1 0x4 DUP3 ADD MSTORE TIMESTAMP SWAP2 PUSH1 0x0 SWAP2 PUSH1 0x1 PUSH1 0x1 PUSH1 0xA0 SHL SUB SWAP1 SWAP2 AND SWAP1 PUSH4 0x70A08231 SWAP1 PUSH1 0x24 ADD PUSH1 0x20 PUSH1 0x40 MLOAD DUP1 DUP4 SUB DUP2 DUP7 DUP1 EXTCODESIZE ISZERO DUP1 ISZERO PUSH2 0xBFD JUMPI PUSH1 0x0 DUP1 REVERT JUMPDEST POP GAS STATICCALL ISZERO DUP1 ISZERO PUSH2 0xC11 JUMPI RETURNDATASIZE PUSH1 0x0 DUP1 RETURNDATACOPY RETURNDATASIZE PUSH1 0x0 REVERT JUMPDEST POP POP POP POP PUSH1 0x40 MLOAD RETURNDATASIZE PUSH1 0x1F NOT PUSH1 0x1F DUP3 ADD AND DUP3 ADD DUP1 PUSH1 0x40 MSTORE POP DUP2 ADD SWAP1 PUSH2 0xC35 SWAP2 SWAP1 PUSH2 0x17E3 JUMP JUMPDEST PUSH1 0x4 SLOAD PUSH1 0x7 SLOAD SWAP2 SWAP3 POP PUSH1 0x1 PUSH1 0x1 PUSH1 0xA0 SHL SUB SWAP2 DUP3 AND SWAP2 AND EQ ISZERO PUSH2 0xC57 JUMPI PUSH1 0x1 SLOAD SWAP1 SUB JUMPDEST PUSH1 0x9 SLOAD PUSH1 0x0 SWAP1 PUSH1 0x1 PUSH1 0x1 PUSH1 0x40 SHL SUB SWAP1 DUP2 AND SWAP1 DUP5 AND LT PUSH2 0xCA3 JUMPI DUP4 PUSH1 0x1 PUSH1 0x1 PUSH1 0x40 SHL SUB AND DUP6 PUSH1 0x1 PUSH1 0x1 PUSH1 0x80 SHL SUB AND DUP2 PUSH2 0xC91 JUMPI PUSH2 0xC91 PUSH2 0x193E JUMP JUMPDEST DIV PUSH1 0x1 PUSH1 0x1 PUSH1 0x80 SHL SUB AND PUSH1 0x8 SSTORE PUSH2 0xCDF JUMP JUMPDEST POP PUSH1 0x9 SLOAD PUSH1 0x8 SLOAD PUSH1 0x1 PUSH1 0x1 PUSH1 0x40 SHL SUB SWAP2 DUP3 AND DUP5 SWAP1 SUB DUP3 AND SWAP1 DUP2 MUL SWAP2 DUP6 AND PUSH1 0x1 PUSH1 0x1 PUSH1 0x80 SHL SUB DUP8 AND DUP4 ADD DUP2 PUSH2 0xCD9 JUMPI PUSH2 0xCD9 PUSH2 0x193E JUMP JUMPDEST DIV PUSH1 0x8 SSTORE POP JUMPDEST DUP2 DUP2 DUP7 PUSH1 0x1 PUSH1 0x1 PUSH1 0x80 SHL SUB AND ADD GT ISZERO PUSH2 0xD2E JUMPI PUSH1 0x40 MLOAD PUSH3 0x461BCD PUSH1 0xE5 SHL DUP2 MSTORE PUSH1 0x20 PUSH1 0x4 DUP3 ADD MSTORE PUSH1 0x11 PUSH1 0x24 DUP3 ADD MSTORE PUSH17 0x6E6F7420656E6F75676820746F6B656E73 PUSH1 0x78 SHL PUSH1 0x44 DUP3 ADD MSTORE PUSH1 0x64 ADD PUSH2 0x6DB JUMP JUMPDEST PUSH1 0x9 DUP1 SLOAD PUSH1 0x1 PUSH1 0x1 PUSH1 0x80 SHL SUB NOT AND PUSH1 0x1 PUSH1 0x40 SHL PUSH1 0x1 PUSH1 0x1 PUSH1 0x40 SHL SUB DUP1 DUP8 AND SWAP2 SWAP1 SWAP2 MUL PUSH8 0xFFFFFFFFFFFFFFFF NOT AND SWAP2 SWAP1 SWAP2 OR DUP6 DUP8 ADD SWAP2 SWAP1 SWAP2 AND OR SWAP1 SSTORE PUSH1 0x40 MLOAD PUSH1 0x1 PUSH1 0x1 PUSH1 0x80 SHL SUB DUP7 AND DUP2 MSTORE PUSH32 0xDE88A922E0D3B88B24E9623EFEB464919C6BF9F66857A65E2BFCF2CE87A9433D SWAP1 PUSH1 0x20 ADD PUSH1 0x40 MLOAD DUP1 SWAP2 SUB SWAP1 LOG1 POP POP POP POP POP JUMP JUMPDEST PUSH1 0x6 SLOAD PUSH1 0x1 PUSH1 0x1 PUSH1 0xA0 SHL SUB AND CALLER EQ PUSH2 0xDD6 JUMPI PUSH1 0x40 MLOAD PUSH3 0x461BCD PUSH1 0xE5 SHL DUP2 MSTORE PUSH1 0x4 ADD PUSH2 0x6DB SWAP1 PUSH2 0x1851 JUMP JUMPDEST PUSH2 0xDDE PUSH2 0x107E JUMP JUMPDEST PUSH1 0x7 SLOAD PUSH1 0x40 MLOAD PUSH4 0x70A08231 PUSH1 0xE0 SHL DUP2 MSTORE ADDRESS PUSH1 0x4 DUP3 ADD MSTORE PUSH1 0x0 SWAP2 PUSH1 0x1 PUSH1 0x1 PUSH1 0xA0 SHL SUB AND SWAP1 PUSH4 0x70A08231 SWAP1 PUSH1 0x24 ADD PUSH1 0x20 PUSH1 0x40 MLOAD DUP1 DUP4 SUB DUP2 DUP7 DUP1 EXTCODESIZE ISZERO DUP1 ISZERO PUSH2 0xE22 JUMPI PUSH1 0x0 DUP1 REVERT JUMPDEST POP GAS STATICCALL ISZERO DUP1 ISZERO PUSH2 0xE36 JUMPI RETURNDATASIZE PUSH1 0x0 DUP1 RETURNDATACOPY RETURNDATASIZE PUSH1 0x0 REVERT JUMPDEST POP POP POP POP PUSH1 0x40 MLOAD RETURNDATASIZE PUSH1 0x1F NOT PUSH1 0x1F DUP3 ADD AND DUP3 ADD DUP1 PUSH1 0x40 MSTORE POP DUP2 ADD SWAP1 PUSH2 0xE5A SWAP2 SWAP1 PUSH2 0x17E3 JUMP JUMPDEST PUSH1 0x4 SLOAD PUSH1 0x7 SLOAD SWAP2 SWAP3 POP PUSH1 0x1 PUSH1 0x1 PUSH1 0xA0 SHL SUB SWAP2 DUP3 AND SWAP2 AND EQ ISZERO PUSH2 0xE86 JUMPI PUSH1 0x1 SLOAD PUSH2 0xE83 SWAP1 DUP3 PUSH2 0x1911 JUMP JUMPDEST SWAP1 POP JUMPDEST PUSH1 0x7 SLOAD PUSH1 0x40 MLOAD PUSH4 0xA9059CBB PUSH1 0xE0 SHL DUP2 MSTORE CALLER PUSH1 0x4 DUP3 ADD MSTORE PUSH1 0x24 DUP2 ADD DUP4 SWAP1 MSTORE PUSH1 0x1 PUSH1 0x1 PUSH1 0xA0 SHL SUB SWAP1 SWAP2 AND SWAP1 PUSH4 0xA9059CBB SWAP1 PUSH1 0x44 ADD PUSH1 0x20 PUSH1 0x40 MLOAD DUP1 DUP4 SUB DUP2 PUSH1 0x0 DUP8 DUP1 EXTCODESIZE ISZERO DUP1 ISZERO PUSH2 0xED2 JUMPI PUSH1 0x0 DUP1 REVERT JUMPDEST POP GAS CALL ISZERO DUP1 ISZERO PUSH2 0xEE6 JUMPI RETURNDATASIZE PUSH1 0x0 DUP1 RETURNDATACOPY RETURNDATASIZE PUSH1 0x0 REVERT JUMPDEST POP POP POP POP PUSH1 0x40 MLOAD RETURNDATASIZE PUSH1 0x1F NOT PUSH1 0x1F DUP3 ADD AND DUP3 ADD DUP1 PUSH1 0x40 MSTORE POP DUP2 ADD SWAP1 PUSH2 0xF0A SWAP2 SWAP1 PUSH2 0x174A JUMP JUMPDEST PUSH2 0xF13 JUMPI PUSH1 0x0 DUP1 REVERT JUMPDEST POP PUSH1 0x0 PUSH1 0x8 SSTORE PUSH1 0x9 DUP1 SLOAD PUSH1 0x1 PUSH1 0x1 PUSH1 0x40 SHL SUB TIMESTAMP AND PUSH8 0xFFFFFFFFFFFFFFFF NOT SWAP1 SWAP2 AND OR SWAP1 SSTORE PUSH2 0xF41 PUSH1 0x1 PUSH1 0x0 SSTORE JUMP JUMPDEST JUMP JUMPDEST PUSH1 0x1 SLOAD PUSH1 0x0 SWAP1 DUP1 PUSH2 0xF66 JUMPI POP POP PUSH1 0x9 SLOAD PUSH1 0x1 PUSH1 0x80 SHL SWAP1 DIV PUSH1 0x1 PUSH1 0x1 PUSH1 0x80 SHL SUB AND SWAP1 JUMP JUMPDEST PUSH1 0x9 SLOAD PUSH1 0x0 SWAP1 PUSH1 0x1 PUSH1 0x40 SHL SWAP1 DIV PUSH1 0x1 PUSH1 0x1 PUSH1 0x40 SHL SUB AND PUSH2 0xF84 PUSH2 0xAA3 JUMP JUMPDEST SUB PUSH1 0x1 PUSH1 0x1 PUSH1 0x40 SHL SUB AND SWAP1 POP DUP2 PUSH1 0x8 SLOAD DUP3 MUL PUSH8 0xDE0B6B3A7640000 MUL DUP2 PUSH2 0xFAD JUMPI PUSH2 0xFAD PUSH2 0x193E JUMP JUMPDEST PUSH1 0x9 SLOAD PUSH1 0x1 PUSH1 0x1 PUSH1 0x80 SHL SUB PUSH1 0x1 PUSH1 0x80 SHL SWAP1 SWAP2 DIV AND SWAP2 SWAP1 DIV ADD SWAP4 SWAP3 POP POP POP JUMP JUMPDEST PUSH1 0x6 SLOAD PUSH1 0x1 PUSH1 0x1 PUSH1 0xA0 SHL SUB AND CALLER EQ PUSH2 0xFF6 JUMPI PUSH1 0x40 MLOAD PUSH3 0x461BCD PUSH1 0xE5 SHL DUP2 MSTORE PUSH1 0x4 ADD PUSH2 0x6DB SWAP1 PUSH2 0x1851 JUMP JUMPDEST PUSH1 0x5 DUP1 SLOAD PUSH1 0x1 PUSH1 0x1 PUSH1 0xA0 SHL SUB NOT AND PUSH1 0x1 PUSH1 0x1 PUSH1 0xA0 SHL SUB SWAP3 SWAP1 SWAP3 AND SWAP2 SWAP1 SWAP2 OR SWAP1 SSTORE JUMP JUMPDEST PUSH2 0x1020 PUSH2 0x107E JUMP JUMPDEST PUSH2 0x1028 PUSH2 0x6F6 JUMP JUMPDEST CALLER PUSH1 0x0 SWAP1 DUP2 MSTORE PUSH1 0x3 PUSH1 0x20 MSTORE PUSH1 0x40 SWAP1 KECCAK256 SLOAD PUSH2 0x1041 SWAP1 PUSH2 0x600 JUMP JUMPDEST PUSH2 0xF41 PUSH1 0x1 PUSH1 0x0 SSTORE JUMP JUMPDEST PUSH1 0x6 SLOAD PUSH1 0x1 PUSH1 0x1 PUSH1 0xA0 SHL SUB AND CALLER EQ PUSH2 0x1075 JUMPI PUSH1 0x40 MLOAD PUSH3 0x461BCD PUSH1 0xE5 SHL DUP2 MSTORE PUSH1 0x4 ADD PUSH2 0x6DB SWAP1 PUSH2 0x1851 JUMP JUMPDEST PUSH2 0xB4D DUP2 PUSH2 0x1601 JUMP JUMPDEST PUSH1 0x2 PUSH1 0x0 SLOAD EQ ISZERO PUSH2 0x10D1 JUMPI PUSH1 0x40 MLOAD PUSH3 0x461BCD PUSH1 0xE5 SHL DUP2 MSTORE PUSH1 0x20 PUSH1 0x4 DUP3 ADD MSTORE PUSH1 0x1F PUSH1 0x24 DUP3 ADD MSTORE PUSH32 0x5265656E7472616E637947756172643A207265656E7472616E742063616C6C00 PUSH1 0x44 DUP3 ADD MSTORE PUSH1 0x64 ADD PUSH2 0x6DB JUMP JUMPDEST PUSH1 0x2 PUSH1 0x0 SSTORE JUMP JUMPDEST CALLER PUSH1 0x0 SWAP1 DUP2 MSTORE PUSH1 0x3 PUSH1 0x20 MSTORE PUSH1 0x40 SWAP1 KECCAK256 SLOAD PUSH1 0x1 PUSH1 0x1 PUSH1 0x80 SHL SUB DUP3 AND GT ISZERO PUSH2 0x1140 JUMPI PUSH1 0x40 MLOAD PUSH3 0x461BCD PUSH1 0xE5 SHL DUP2 MSTORE PUSH1 0x20 PUSH1 0x4 DUP3 ADD MSTORE PUSH1 0x1A PUSH1 0x24 DUP3 ADD MSTORE PUSH32 0x77697468647261773A2062616C616E6365206973206C6F776572000000000000 PUSH1 0x44 DUP3 ADD MSTORE PUSH1 0x64 ADD PUSH2 0x6DB JUMP JUMPDEST CALLER PUSH1 0x0 SWAP1 DUP2 MSTORE PUSH1 0x3 PUSH1 0x20 MSTORE PUSH1 0x40 SWAP1 KECCAK256 DUP1 SLOAD PUSH1 0x1 PUSH1 0x1 PUSH1 0x80 SHL SUB DUP4 AND SWAP1 DUP2 SWAP1 SUB SWAP1 SWAP2 SSTORE PUSH1 0x1 DUP1 SLOAD SWAP2 SWAP1 SWAP2 SUB SWAP1 SSTORE PUSH1 0x4 SLOAD PUSH1 0x1 PUSH1 0x1 PUSH1 0xA0 SHL SUB AND DUP1 PUSH2 0x1291 JUMPI PUSH1 0x2 SLOAD PUSH1 0x0 SWAP1 PUSH1 0x64 SWAP1 PUSH2 0x1199 SWAP1 PUSH1 0x1 PUSH1 0x1 PUSH1 0x80 SHL SUB AND DUP6 PUSH2 0x18BA JUMP JUMPDEST PUSH2 0x11A3 SWAP2 SWAP1 PUSH2 0x1886 JUMP JUMPDEST PUSH1 0x5 SLOAD PUSH1 0x40 MLOAD SWAP2 SWAP3 POP PUSH1 0x1 PUSH1 0x1 PUSH1 0xA0 SHL SUB AND SWAP1 PUSH1 0x1 PUSH1 0x1 PUSH1 0x80 SHL SUB DUP4 AND DUP1 ISZERO PUSH2 0x8FC MUL SWAP2 PUSH1 0x0 DUP2 DUP2 DUP2 DUP6 DUP9 DUP9 CALL SWAP4 POP POP POP POP ISZERO DUP1 ISZERO PUSH2 0x11E6 JUMPI RETURNDATASIZE PUSH1 0x0 DUP1 RETURNDATACOPY RETURNDATASIZE PUSH1 0x0 REVERT JUMPDEST POP PUSH1 0x0 CALLER PUSH2 0x11F4 DUP4 DUP7 PUSH2 0x18E9 JUMP JUMPDEST PUSH1 0x1 PUSH1 0x1 PUSH1 0x80 SHL SUB AND PUSH1 0x40 MLOAD PUSH1 0x0 PUSH1 0x40 MLOAD DUP1 DUP4 SUB DUP2 DUP6 DUP8 GAS CALL SWAP3 POP POP POP RETURNDATASIZE DUP1 PUSH1 0x0 DUP2 EQ PUSH2 0x123D JUMPI PUSH1 0x40 MLOAD SWAP2 POP PUSH1 0x1F NOT PUSH1 0x3F RETURNDATASIZE ADD AND DUP3 ADD PUSH1 0x40 MSTORE RETURNDATASIZE DUP3 MSTORE RETURNDATASIZE PUSH1 0x0 PUSH1 0x20 DUP5 ADD RETURNDATACOPY PUSH2 0x1242 JUMP JUMPDEST PUSH1 0x60 SWAP2 POP JUMPDEST POP POP SWAP1 POP DUP1 PUSH2 0x128A JUMPI PUSH1 0x40 MLOAD PUSH3 0x461BCD PUSH1 0xE5 SHL DUP2 MSTORE PUSH1 0x20 PUSH1 0x4 DUP3 ADD MSTORE PUSH1 0x14 PUSH1 0x24 DUP3 ADD MSTORE PUSH20 0x657468207472616E73666572206661696C757265 PUSH1 0x60 SHL PUSH1 0x44 DUP3 ADD MSTORE PUSH1 0x64 ADD PUSH2 0x6DB JUMP JUMPDEST POP POP PUSH2 0x1374 JUMP JUMPDEST PUSH1 0x4 DUP1 SLOAD PUSH1 0x40 MLOAD PUSH4 0xA9059CBB PUSH1 0xE0 SHL DUP2 MSTORE CALLER SWAP3 DUP2 ADD SWAP3 SWAP1 SWAP3 MSTORE PUSH1 0x1 PUSH1 0x1 PUSH1 0x80 SHL SUB DUP5 AND PUSH1 0x24 DUP4 ADD MSTORE PUSH1 0x1 PUSH1 0x1 PUSH1 0xA0 SHL SUB AND SWAP1 PUSH4 0xA9059CBB SWAP1 PUSH1 0x44 ADD PUSH1 0x20 PUSH1 0x40 MLOAD DUP1 DUP4 SUB DUP2 PUSH1 0x0 DUP8 DUP1 EXTCODESIZE ISZERO DUP1 ISZERO PUSH2 0x12E6 JUMPI PUSH1 0x0 DUP1 REVERT JUMPDEST POP GAS CALL ISZERO DUP1 ISZERO PUSH2 0x12FA JUMPI RETURNDATASIZE PUSH1 0x0 DUP1 RETURNDATACOPY RETURNDATASIZE PUSH1 0x0 REVERT JUMPDEST POP POP POP POP PUSH1 0x40 MLOAD RETURNDATASIZE PUSH1 0x1F NOT PUSH1 0x1F DUP3 ADD AND DUP3 ADD DUP1 PUSH1 0x40 MSTORE POP DUP2 ADD SWAP1 PUSH2 0x131E SWAP2 SWAP1 PUSH2 0x174A JUMP JUMPDEST PUSH1 0x40 MLOAD DUP1 PUSH1 0x40 ADD PUSH1 0x40 MSTORE DUP1 PUSH1 0x1C DUP2 MSTORE PUSH1 0x20 ADD PUSH32 0x7374616B656420746F6B656E207472616E73666572206661696C656400000000 DUP2 MSTORE POP SWAP1 PUSH2 0x1372 JUMPI PUSH1 0x40 MLOAD PUSH3 0x461BCD PUSH1 0xE5 SHL DUP2 MSTORE PUSH1 0x4 ADD PUSH2 0x6DB SWAP2 SWAP1 PUSH2 0x17FC JUMP JUMPDEST POP JUMPDEST PUSH1 0x40 MLOAD PUSH1 0x1 PUSH1 0x1 PUSH1 0x80 SHL SUB DUP4 AND DUP2 MSTORE CALLER SWAP1 PUSH32 0x7084F5476618D8E60B11EF0D7D3F06914655ADB8793E28FF7F018D4C76D505D5 SWAP1 PUSH1 0x20 ADD PUSH1 0x40 MLOAD DUP1 SWAP2 SUB SWAP1 LOG2 POP POP JUMP JUMPDEST PUSH1 0x4 SLOAD PUSH1 0x1 PUSH1 0x1 PUSH1 0xA0 SHL SUB AND DUP1 PUSH2 0x13F6 JUMPI PUSH1 0x1 DUP1 SLOAD CALLVALUE SWAP1 DUP2 ADD SWAP1 SWAP2 SSTORE PUSH1 0x1 PUSH1 0x1 PUSH1 0xA0 SHL SUB DUP5 AND PUSH1 0x0 SWAP1 DUP2 MSTORE PUSH1 0x3 PUSH1 0x20 MSTORE PUSH1 0x40 SWAP1 KECCAK256 DUP1 SLOAD SWAP1 SWAP2 ADD SWAP1 SSTORE PUSH2 0x15B5 JUMP JUMPDEST CALLVALUE ISZERO PUSH2 0x143B JUMPI PUSH1 0x40 MLOAD PUSH3 0x461BCD PUSH1 0xE5 SHL DUP2 MSTORE PUSH1 0x20 PUSH1 0x4 DUP3 ADD MSTORE PUSH1 0x14 PUSH1 0x24 DUP3 ADD MSTORE PUSH20 0x16995C9BC8115D1A081B9BDD08185B1B1BDDD959 PUSH1 0x62 SHL PUSH1 0x44 DUP3 ADD MSTORE PUSH1 0x64 ADD PUSH2 0x6DB JUMP JUMPDEST PUSH1 0x0 DUP3 PUSH1 0x1 PUSH1 0x1 PUSH1 0x80 SHL SUB AND GT PUSH2 0x149E JUMPI PUSH1 0x40 MLOAD PUSH3 0x461BCD PUSH1 0xE5 SHL DUP2 MSTORE PUSH1 0x20 PUSH1 0x4 DUP3 ADD MSTORE PUSH1 0x21 PUSH1 0x24 DUP3 ADD MSTORE PUSH32 0x5374616B652073686F756C642062652067726561746572207468616E207A6572 PUSH1 0x44 DUP3 ADD MSTORE PUSH1 0x6F PUSH1 0xF8 SHL PUSH1 0x64 DUP3 ADD MSTORE PUSH1 0x84 ADD PUSH2 0x6DB JUMP JUMPDEST PUSH1 0x40 MLOAD PUSH4 0x23B872DD PUSH1 0xE0 SHL DUP2 MSTORE CALLER PUSH1 0x4 DUP3 ADD MSTORE ADDRESS PUSH1 0x24 DUP3 ADD MSTORE PUSH1 0x1 PUSH1 0x1 PUSH1 0x80 SHL SUB DUP4 AND PUSH1 0x44 DUP3 ADD MSTORE PUSH1 0x1 PUSH1 0x1 PUSH1 0xA0 SHL SUB DUP3 AND SWAP1 PUSH4 0x23B872DD SWAP1 PUSH1 0x64 ADD PUSH1 0x20 PUSH1 0x40 MLOAD DUP1 DUP4 SUB DUP2 PUSH1 0x0 DUP8 DUP1 EXTCODESIZE ISZERO DUP1 ISZERO PUSH2 0x14F4 JUMPI PUSH1 0x0 DUP1 REVERT JUMPDEST POP GAS CALL ISZERO DUP1 ISZERO PUSH2 0x1508 JUMPI RETURNDATASIZE PUSH1 0x0 DUP1 RETURNDATACOPY RETURNDATASIZE PUSH1 0x0 REVERT JUMPDEST POP POP POP POP PUSH1 0x40 MLOAD RETURNDATASIZE PUSH1 0x1F NOT PUSH1 0x1F DUP3 ADD AND DUP3 ADD DUP1 PUSH1 0x40 MSTORE POP DUP2 ADD SWAP1 PUSH2 0x152C SWAP2 SWAP1 PUSH2 0x174A JUMP JUMPDEST PUSH1 0x40 MLOAD DUP1 PUSH1 0x40 ADD PUSH1 0x40 MSTORE DUP1 PUSH1 0x1C DUP2 MSTORE PUSH1 0x20 ADD PUSH32 0x7374616B656420746F6B656E207472616E73666572206661696C656400000000 DUP2 MSTORE POP SWAP1 PUSH2 0x1580 JUMPI PUSH1 0x40 MLOAD PUSH3 0x461BCD PUSH1 0xE5 SHL DUP2 MSTORE PUSH1 0x4 ADD PUSH2 0x6DB SWAP2 SWAP1 PUSH2 0x17FC JUMP JUMPDEST POP PUSH1 0x1 DUP1 SLOAD PUSH1 0x1 PUSH1 0x1 PUSH1 0x80 SHL SUB DUP5 AND SWAP1 DUP2 ADD SWAP1 SWAP2 SSTORE PUSH1 0x1 PUSH1 0x1 PUSH1 0xA0 SHL SUB DUP5 AND PUSH1 0x0 SWAP1 DUP2 MSTORE PUSH1 0x3 PUSH1 0x20 MSTORE PUSH1 0x40 SWAP1 KECCAK256 DUP1 SLOAD SWAP1 SWAP2 ADD SWAP1 SSTORE JUMPDEST PUSH1 0x40 MLOAD PUSH1 0x1 PUSH1 0x1 PUSH1 0x80 SHL SUB DUP4 AND DUP2 MSTORE PUSH1 0x1 PUSH1 0x1 PUSH1 0xA0 SHL SUB DUP5 AND SWAP1 PUSH32 0x9E71BC8EEA02A63969F509818F2DAFB9254532904319F9DBDA79B67BD34A5F3D SWAP1 PUSH1 0x20 ADD PUSH1 0x40 MLOAD DUP1 SWAP2 SUB SWAP1 LOG2 POP POP POP JUMP JUMPDEST PUSH1 0x1 PUSH1 0x1 PUSH1 0xA0 SHL SUB DUP2 AND PUSH2 0x1666 JUMPI PUSH1 0x40 MLOAD PUSH3 0x461BCD PUSH1 0xE5 SHL DUP2 MSTORE PUSH1 0x20 PUSH1 0x4 DUP3 ADD MSTORE PUSH1 0x26 PUSH1 0x24 DUP3 ADD MSTORE PUSH32 0x4F776E61626C653A206E6577206F776E657220697320746865207A65726F2061 PUSH1 0x44 DUP3 ADD MSTORE PUSH6 0x646472657373 PUSH1 0xD0 SHL PUSH1 0x64 DUP3 ADD MSTORE PUSH1 0x84 ADD PUSH2 0x6DB JUMP JUMPDEST PUSH1 0x6 SLOAD PUSH1 0x40 MLOAD PUSH1 0x1 PUSH1 0x1 PUSH1 0xA0 SHL SUB DUP1 DUP5 AND SWAP3 AND SWAP1 PUSH32 0x8BE0079C531659141344CD1FD0A4F28419497F9722A3DAAFE3B4186F6B6457E0 SWAP1 PUSH1 0x0 SWAP1 LOG3 PUSH1 0x6 DUP1 SLOAD PUSH1 0x1 PUSH1 0x1 PUSH1 0xA0 SHL SUB NOT AND PUSH1 0x1 PUSH1 0x1 PUSH1 0xA0 SHL SUB SWAP3 SWAP1 SWAP3 AND SWAP2 SWAP1 SWAP2 OR SWAP1 SSTORE JUMP JUMPDEST DUP1 CALLDATALOAD PUSH1 0x1 PUSH1 0x1 PUSH1 0xA0 SHL SUB DUP2 AND DUP2 EQ PUSH2 0x16D9 JUMPI PUSH1 0x0 DUP1 REVERT JUMPDEST SWAP2 SWAP1 POP JUMP JUMPDEST DUP1 CALLDATALOAD PUSH1 0x1 PUSH1 0x1 PUSH1 0x80 SHL SUB DUP2 AND DUP2 EQ PUSH2 0x16D9 JUMPI PUSH1 0x0 DUP1 REVERT JUMPDEST PUSH1 0x0 PUSH1 0x20 DUP3 DUP5 SUB SLT ISZERO PUSH2 0x1707 JUMPI PUSH1 0x0 DUP1 REVERT JUMPDEST PUSH2 0x1710 DUP3 PUSH2 0x16C2 JUMP JUMPDEST SWAP4 SWAP3 POP POP POP JUMP JUMPDEST PUSH1 0x0 DUP1 PUSH1 0x40 DUP4 DUP6 SUB SLT ISZERO PUSH2 0x172A JUMPI PUSH1 0x0 DUP1 REVERT JUMPDEST PUSH2 0x1733 DUP4 PUSH2 0x16C2 JUMP JUMPDEST SWAP2 POP PUSH2 0x1741 PUSH1 0x20 DUP5 ADD PUSH2 0x16DE JUMP JUMPDEST SWAP1 POP SWAP3 POP SWAP3 SWAP1 POP JUMP JUMPDEST PUSH1 0x0 PUSH1 0x20 DUP3 DUP5 SUB SLT ISZERO PUSH2 0x175C JUMPI PUSH1 0x0 DUP1 REVERT JUMPDEST DUP2 MLOAD DUP1 ISZERO ISZERO DUP2 EQ PUSH2 0x1710 JUMPI PUSH1 0x0 DUP1 REVERT JUMPDEST PUSH1 0x0 PUSH1 0x20 DUP3 DUP5 SUB SLT ISZERO PUSH2 0x177E JUMPI PUSH1 0x0 DUP1 REVERT JUMPDEST PUSH2 0x1710 DUP3 PUSH2 0x16DE JUMP JUMPDEST PUSH1 0x0 DUP1 PUSH1 0x40 DUP4 DUP6 SUB SLT ISZERO PUSH2 0x179A JUMPI PUSH1 0x0 DUP1 REVERT JUMPDEST PUSH2 0x17A3 DUP4 PUSH2 0x16DE JUMP JUMPDEST SWAP2 POP PUSH1 0x20 DUP4 ADD CALLDATALOAD PUSH1 0x1 PUSH1 0x1 PUSH1 0x40 SHL SUB DUP2 AND DUP2 EQ PUSH2 0x17BF JUMPI PUSH1 0x0 DUP1 REVERT JUMPDEST DUP1 SWAP2 POP POP SWAP3 POP SWAP3 SWAP1 POP JUMP JUMPDEST PUSH1 0x0 PUSH1 0x20 DUP3 DUP5 SUB SLT ISZERO PUSH2 0x17DC JUMPI PUSH1 0x0 DUP1 REVERT JUMPDEST POP CALLDATALOAD SWAP2 SWAP1 POP JUMP JUMPDEST PUSH1 0x0 PUSH1 0x20 DUP3 DUP5 SUB SLT ISZERO PUSH2 0x17F5 JUMPI PUSH1 0x0 DUP1 REVERT JUMPDEST POP MLOAD SWAP2 SWAP1 POP JUMP JUMPDEST PUSH1 0x0 PUSH1 0x20 DUP1 DUP4 MSTORE DUP4 MLOAD DUP1 DUP3 DUP6 ADD MSTORE PUSH1 0x0 JUMPDEST DUP2 DUP2 LT ISZERO PUSH2 0x1829 JUMPI DUP6 DUP2 ADD DUP4 ADD MLOAD DUP6 DUP3 ADD PUSH1 0x40 ADD MSTORE DUP3 ADD PUSH2 0x180D JUMP JUMPDEST DUP2 DUP2 GT ISZERO PUSH2 0x183B JUMPI PUSH1 0x0 PUSH1 0x40 DUP4 DUP8 ADD ADD MSTORE JUMPDEST POP PUSH1 0x1F ADD PUSH1 0x1F NOT AND SWAP3 SWAP1 SWAP3 ADD PUSH1 0x40 ADD SWAP4 SWAP3 POP POP POP JUMP JUMPDEST PUSH1 0x20 DUP1 DUP3 MSTORE DUP2 DUP2 ADD MSTORE PUSH32 0x4F776E61626C653A2063616C6C6572206973206E6F7420746865206F776E6572 PUSH1 0x40 DUP3 ADD MSTORE PUSH1 0x60 ADD SWAP1 JUMP JUMPDEST PUSH1 0x0 PUSH1 0x1 PUSH1 0x1 PUSH1 0x80 SHL SUB DUP1 DUP5 AND DUP1 PUSH2 0x18AE JUMPI PUSH4 0x4E487B71 PUSH1 0xE0 SHL PUSH1 0x0 MSTORE PUSH1 0x12 PUSH1 0x4 MSTORE PUSH1 0x24 PUSH1 0x0 REVERT JUMPDEST SWAP3 AND SWAP2 SWAP1 SWAP2 DIV SWAP3 SWAP2 POP POP JUMP JUMPDEST PUSH1 0x0 PUSH1 0x1 PUSH1 0x1 PUSH1 0x80 SHL SUB DUP1 DUP4 AND DUP2 DUP6 AND DUP2 DUP4 DIV DUP2 GT DUP3 ISZERO ISZERO AND ISZERO PUSH2 0x18E0 JUMPI PUSH2 0x18E0 PUSH2 0x1928 JUMP JUMPDEST MUL SWAP5 SWAP4 POP POP POP POP JUMP JUMPDEST PUSH1 0x0 PUSH1 0x1 PUSH1 0x1 PUSH1 0x80 SHL SUB DUP4 DUP2 AND SWAP1 DUP4 AND DUP2 DUP2 LT ISZERO PUSH2 0x1909 JUMPI PUSH2 0x1909 PUSH2 0x1928 JUMP JUMPDEST SUB SWAP4 SWAP3 POP POP POP JUMP JUMPDEST PUSH1 0x0 DUP3 DUP3 LT ISZERO PUSH2 0x1923 JUMPI PUSH2 0x1923 PUSH2 0x1928 JUMP JUMPDEST POP SUB SWAP1 JUMP JUMPDEST PUSH4 0x4E487B71 PUSH1 0xE0 SHL PUSH1 0x0 MSTORE PUSH1 0x11 PUSH1 0x4 MSTORE PUSH1 0x24 PUSH1 0x0 REVERT JUMPDEST PUSH4 0x4E487B71 PUSH1 0xE0 SHL PUSH1 0x0 MSTORE PUSH1 0x12 PUSH1 0x4 MSTORE PUSH1 0x24 PUSH1 0x0 REVERT INVALID LOG2 PUSH5 0x6970667358 0x22 SLT KECCAK256 JUMPDEST LOG1 PUSH14 0x3D119637FECF860C9CB0DCF150DA 0x25 PUSH1 0xD0 SHL RETURNDATASIZE PUSH6 0xE915A24AE343 0xBF 0xC4 0xDF PUSH5 0x736F6C6343 STOP ADDMOD SMOD STOP CALLER "
        },
        "methodIdentifiers": {
          "balanceOf(address)": "70a08231",
          "beneficiary()": "38af3eed",
          "buyback()": "f8ec6911",
          "earned(address)": "008cc262",
          "exit()": "e9fad8ee",
          "getReward()": "3d18b912",
          "lastTimeRewardApplicable()": "80faa57d",
          "lastUpdateTime()": "c8f33c91",
          "maxStakingAmount()": "4d5d0806",
          "owner()": "8da5cb5b",
          "periodFinish()": "ebe2b12b",
          "renounceOwnership()": "715018a6",
          "rewardPerToken()": "cd3daf9d",
          "rewardPerTokenStored()": "df136d65",
          "rewardRate()": "7b0a47ee",
          "rewardToken()": "f7c618c1",
          "setBuyBackAddr(address)": "cfffbd66",
          "setBuyback(uint128)": "807710e0",
          "setMaxStakingAmount(uint256)": "22b10554",
          "setRewardParams(uint128,uint64)": "89ee4bde",
          "stake(uint128)": "88fe2be8",
          "stakeFor(address,uint128)": "70458d85",
          "stakedToken()": "cc7a262e",
          "totalSupply()": "18160ddd",
          "transferOwnership(address)": "f2fde38b",
          "userRewards(address)": "0660f1e8",
          "withdraw(uint128)": "02387a7b",
          "withdrawReward()": "c885bc58"
        }
      }
    }
  }
}