{
  "_format": "hh-sol-artifact-1",
  "contractName": "StakedWrapper",
  "sourceName": "contracts/NewRewardsETH.sol",
  "abi": [
    {
      "anonymous": false,
      "inputs": [
        {
          "indexed": true,
          "internalType": "address",
          "name": "user",
          "type": "address"
        },
        {
          "indexed": false,
          "internalType": "uint256",
          "name": "amount",
          "type": "uint256"
        }
      ],
      "name": "Staked",
      "type": "event"
    },
    {
      "anonymous": false,
      "inputs": [
        {
          "indexed": true,
          "internalType": "address",
          "name": "user",
          "type": "address"
        },
        {
          "indexed": false,
          "internalType": "uint256",
          "name": "amount",
          "type": "uint256"
        }
      ],
      "name": "Withdrawn",
      "type": "event"
    },
    {
      "inputs": [
        {
          "internalType": "address",
          "name": "account",
          "type": "address"
        }
      ],
      "name": "balanceOf",
      "outputs": [
        {
          "internalType": "uint256",
          "name": "",
          "type": "uint256"
        }
      ],
      "stateMutability": "view",
      "type": "function"
    },
    {
      "inputs": [],
      "name": "beneficiary",
      "outputs": [
        {
          "internalType": "address",
          "name": "",
          "type": "address"
        }
      ],
      "stateMutability": "view",
      "type": "function"
    },
    {
      "inputs": [],
      "name": "buyback",
      "outputs": [
        {
          "internalType": "uint128",
          "name": "",
          "type": "uint128"
        }
      ],
      "stateMutability": "view",
      "type": "function"
    },
    {
      "inputs": [
        {
          "internalType": "address",
          "name": "forWhom",
          "type": "address"
        },
        {
          "internalType": "uint128",
          "name": "amount",
          "type": "uint128"
        }
      ],
      "name": "stakeFor",
      "outputs": [],
      "stateMutability": "payable",
      "type": "function"
    },
    {
      "inputs": [],
      "name": "stakedToken",
      "outputs": [
        {
          "internalType": "contract IERC20",
          "name": "",
          "type": "address"
        }
      ],
      "stateMutability": "view",
      "type": "function"
    },
    {
      "inputs": [],
      "name": "totalSupply",
      "outputs": [
        {
          "internalType": "uint256",
          "name": "",
          "type": "uint256"
        }
      ],
      "stateMutability": "view",
      "type": "function"
    },
    {
      "inputs": [
        {
          "internalType": "uint128",
          "name": "amount",
          "type": "uint128"
        }
      ],
      "name": "withdraw",
      "outputs": [],
      "stateMutability": "nonpayable",
      "type": "function"
    }
  ],
  "bytecode": "0x6080604052600180546001600160801b0319166002179055600480546001600160a01b03191673dbfd6dabd2eaf53e5dbdc5e96ffb7e5e6b201f6917905534801561004957600080fd5b506108ac806100596000396000f3fe6080604052600436106100705760003560e01c806370458d851161004e57806370458d85146100f857806370a082311461010b578063cc7a262e14610141578063f8ec69111461016157600080fd5b806302387a7b1461007557806318160ddd1461009757806338af3eed146100c0575b600080fd5b34801561008157600080fd5b50610095610090366004610765565b610199565b005b3480156100a357600080fd5b506100ad60005481565b6040519081526020015b60405180910390f35b3480156100cc57600080fd5b506004546100e0906001600160a01b031681565b6040516001600160a01b0390911681526020016100b7565b610095610106366004610710565b610476565b34801561011757600080fd5b506100ad6101263660046106ee565b6001600160a01b031660009081526002602052604090205490565b34801561014d57600080fd5b506003546100e0906001600160a01b031681565b34801561016d57600080fd5b50600154610181906001600160801b031681565b6040516001600160801b0390911681526020016100b7565b336000908152600260205260409020546001600160801b03821611156102065760405162461bcd60e51b815260206004820152601a60248201527f77697468647261773a2062616c616e6365206973206c6f77657200000000000060448201526064015b60405180910390fd5b33600090815260026020526040812080546001600160801b0384169081900390915581540390556003546001600160a01b0316806103525760015460009060649061025a906001600160801b031685610809565b61026491906107d5565b6004546040519192506001600160a01b0316906001600160801b03831680156108fc02916000818181858888f193505050501580156102a7573d6000803e3d6000fd5b506000336102b58386610838565b6001600160801b031660405160006040518083038185875af1925050503d80600081146102fe576040519150601f19603f3d011682016040523d82523d6000602084013e610303565b606091505b505090508061034b5760405162461bcd60e51b8152602060048201526014602482015273657468207472616e73666572206661696c75726560601b60448201526064016101fd565b5050610434565b60035460405163a9059cbb60e01b81523360048201526001600160801b03841660248201526001600160a01b039091169063a9059cbb90604401602060405180830381600087803b1580156103a657600080fd5b505af11580156103ba573d6000803e3d6000fd5b505050506040513d601f19601f820116820180604052508101906103de9190610743565b6040518060400160405280601c81526020017f7374616b656420746f6b656e207472616e73666572206661696c656400000000815250906104325760405162461bcd60e51b81526004016101fd9190610780565b505b6040516001600160801b038316815233907f7084f5476618d8e60b11ef0d7d3f06914655adb8793e28ff7f018d4c76d505d59060200160405180910390a25050565b6003546001600160a01b0316806104b357600080543490810182556001600160a01b0385168252600260205260409091208054909101905561066f565b34156104f85760405162461bcd60e51b815260206004820152601460248201527316995c9bc8115d1a081b9bdd08185b1b1bddd95960621b60448201526064016101fd565b6000826001600160801b03161161055b5760405162461bcd60e51b815260206004820152602160248201527f5374616b652073686f756c642062652067726561746572207468616e207a65726044820152606f60f81b60648201526084016101fd565b6040516323b872dd60e01b81523360048201523060248201526001600160801b03831660448201526001600160a01b038216906323b872dd90606401602060405180830381600087803b1580156105b157600080fd5b505af11580156105c5573d6000803e3d6000fd5b505050506040513d601f19601f820116820180604052508101906105e99190610743565b6040518060400160405280601c81526020017f7374616b656420746f6b656e207472616e73666572206661696c6564000000008152509061063d5760405162461bcd60e51b81526004016101fd9190610780565b50600080546001600160801b03841690810182556001600160a01b038516825260026020526040909120805490910190555b6040516001600160801b03831681526001600160a01b038416907f9e71bc8eea02a63969f509818f2dafb9254532904319f9dbda79b67bd34a5f3d9060200160405180910390a2505050565b80356001600160a01b03811681146106d257600080fd5b919050565b80356001600160801b03811681146106d257600080fd5b60006020828403121561070057600080fd5b610709826106bb565b9392505050565b6000806040838503121561072357600080fd5b61072c836106bb565b915061073a602084016106d7565b90509250929050565b60006020828403121561075557600080fd5b8151801515811461070957600080fd5b60006020828403121561077757600080fd5b610709826106d7565b600060208083528351808285015260005b818110156107ad57858101830151858201604001528201610791565b818111156107bf576000604083870101525b50601f01601f1916929092016040019392505050565b60006001600160801b03808416806107fd57634e487b7160e01b600052601260045260246000fd5b92169190910492915050565b60006001600160801b038083168185168183048111821515161561082f5761082f610860565b02949350505050565b60006001600160801b038381169083168181101561085857610858610860565b039392505050565b634e487b7160e01b600052601160045260246000fdfea264697066735822122006e78645ecdec7c4f0072e8d2f4cc7a9b49e7a41507a7549daf711db9deb237864736f6c63430008070033",
  "linkReferences": {},
  "deployedLinkReferences": {}
}